{
  "contractName": "Election",
  "abi": [
    {
      "inputs": [],
      "stateMutability": "nonpayable",
      "type": "constructor"
    },
    {
      "inputs": [],
      "name": "admin",
      "outputs": [
        {
          "internalType": "address",
          "name": "",
          "type": "address"
        }
      ],
      "stateMutability": "view",
      "type": "function",
      "constant": true
    },
    {
      "inputs": [],
      "name": "voterCount",
      "outputs": [
        {
          "internalType": "uint256",
          "name": "",
          "type": "uint256"
        }
      ],
      "stateMutability": "view",
      "type": "function",
      "constant": true
    },
    {
      "inputs": [
        {
          "internalType": "address",
          "name": "",
          "type": "address"
        }
      ],
      "name": "voters",
      "outputs": [
        {
          "internalType": "string",
          "name": "voterName",
          "type": "string"
        },
        {
          "internalType": "string",
          "name": "voterID",
          "type": "string"
        },
        {
          "internalType": "string",
          "name": "phoneNumber",
          "type": "string"
        },
        {
          "internalType": "address",
          "name": "voterAddress",
          "type": "address"
        },
        {
          "internalType": "bool",
          "name": "voted",
          "type": "bool"
        },
        {
          "internalType": "string",
          "name": "vote",
          "type": "string"
        }
      ],
      "stateMutability": "view",
      "type": "function",
      "constant": true
    },
    {
      "inputs": [
        {
          "internalType": "string",
          "name": "_voterName",
          "type": "string"
        },
        {
          "internalType": "string",
          "name": "_voterID",
          "type": "string"
        },
        {
          "internalType": "string",
          "name": "_phoneNumber",
          "type": "string"
        }
      ],
      "name": "voterLogin",
      "outputs": [],
      "stateMutability": "nonpayable",
      "type": "function"
    },
    {
      "inputs": [
        {
          "internalType": "string",
          "name": "_candidateName",
          "type": "string"
        }
      ],
      "name": "vote",
      "outputs": [],
      "stateMutability": "nonpayable",
      "type": "function"
    }
  ],
  "bytecode": "0x608060405234801561001057600080fd5b50336000806101000a81548173ffffffffffffffffffffffffffffffffffffffff021916908373ffffffffffffffffffffffffffffffffffffffff1602179055506000600181905550610e1a806100686000396000f3fe608060405234801561001057600080fd5b50600436106100575760003560e01c806342169e481461005c578063a3ec138d1461007a578063f851a440146100af578063f9f53447146100cd578063fc36e15b146100e9575b600080fd5b610064610105565b6040516100719190610867565b60405180910390f35b610094600480360381019061008f91906108f4565b61010b565b6040516100a6969594939291906109e4565b60405180910390f35b6100b7610394565b6040516100c49190610a61565b60405180910390f35b6100e760048036038101906100e29190610bb1565b6103b8565b005b61010360048036038101906100fe9190610c58565b61060e565b005b60015481565b600260205280600052604060002060009150905080600001805461012e90610cd0565b80601f016020809104026020016040519081016040528092919081815260200182805461015a90610cd0565b80156101a75780601f1061017c576101008083540402835291602001916101a7565b820191906000526020600020905b81548152906001019060200180831161018a57829003601f168201915b5050505050908060010180546101bc90610cd0565b80601f01602080910402602001604051908101604052809291908181526020018280546101e890610cd0565b80156102355780601f1061020a57610100808354040283529160200191610235565b820191906000526020600020905b81548152906001019060200180831161021857829003601f168201915b50505050509080600201805461024a90610cd0565b80601f016020809104026020016040519081016040528092919081815260200182805461027690610cd0565b80156102c35780601f10610298576101008083540402835291602001916102c3565b820191906000526020600020905b8154815290600101906020018083116102a657829003601f168201915b5050505050908060030160009054906101000a900473ffffffffffffffffffffffffffffffffffffffff16908060030160149054906101000a900460ff169080600401805461031190610cd0565b80601f016020809104026020016040519081016040528092919081815260200182805461033d90610cd0565b801561038a5780601f1061035f5761010080835404028352916020019161038a565b820191906000526020600020905b81548152906001019060200180831161036d57829003601f168201915b5050505050905086565b60008054906101000a900473ffffffffffffffffffffffffffffffffffffffff1681565b60008054906101000a900473ffffffffffffffffffffffffffffffffffffffff1673ffffffffffffffffffffffffffffffffffffffff163373ffffffffffffffffffffffffffffffffffffffff160361041057600080fd5b82600260003373ffffffffffffffffffffffffffffffffffffffff1673ffffffffffffffffffffffffffffffffffffffff16815260200190815260200160002060000190805190602001906104669291906107ab565b5081600260003373ffffffffffffffffffffffffffffffffffffffff1673ffffffffffffffffffffffffffffffffffffffff16815260200190815260200160002060010190805190602001906104bd9291906107ab565b5080600260003373ffffffffffffffffffffffffffffffffffffffff1673ffffffffffffffffffffffffffffffffffffffff16815260200190815260200160002060020190805190602001906105149291906107ab565b5033600260003373ffffffffffffffffffffffffffffffffffffffff1673ffffffffffffffffffffffffffffffffffffffff16815260200190815260200160002060030160006101000a81548173ffffffffffffffffffffffffffffffffffffffff021916908373ffffffffffffffffffffffffffffffffffffffff1602179055506000600260003373ffffffffffffffffffffffffffffffffffffffff1673ffffffffffffffffffffffffffffffffffffffff16815260200190815260200160002060030160146101000a81548160ff0219169083151502179055506001600081548092919061060490610d30565b9190505550505050565b60008054906101000a900473ffffffffffffffffffffffffffffffffffffffff1673ffffffffffffffffffffffffffffffffffffffff163373ffffffffffffffffffffffffffffffffffffffff160361066657600080fd5b600260003373ffffffffffffffffffffffffffffffffffffffff1673ffffffffffffffffffffffffffffffffffffffff16815260200190815260200160002060030160149054906101000a900460ff16156106f6576040517f08c379a00000000000000000000000000000000000000000000000000000000081526004016106ed90610dc4565b60405180910390fd5b6001600260003373ffffffffffffffffffffffffffffffffffffffff1673ffffffffffffffffffffffffffffffffffffffff16815260200190815260200160002060030160146101000a81548160ff02191690831515021790555080600260003373ffffffffffffffffffffffffffffffffffffffff1673ffffffffffffffffffffffffffffffffffffffff16815260200190815260200160002060040190805190602001906107a79291906107ab565b5050565b8280546107b790610cd0565b90600052602060002090601f0160209004810192826107d95760008555610820565b82601f106107f257805160ff1916838001178555610820565b82800160010185558215610820579182015b8281111561081f578251825591602001919060010190610804565b5b50905061082d9190610831565b5090565b5b8082111561084a576000816000905550600101610832565b5090565b6000819050919050565b6108618161084e565b82525050565b600060208201905061087c6000830184610858565b92915050565b6000604051905090565b600080fd5b600080fd5b600073ffffffffffffffffffffffffffffffffffffffff82169050919050565b60006108c182610896565b9050919050565b6108d1816108b6565b81146108dc57600080fd5b50565b6000813590506108ee816108c8565b92915050565b60006020828403121561090a5761090961088c565b5b6000610918848285016108df565b91505092915050565b600081519050919050565b600082825260208201905092915050565b60005b8381101561095b578082015181840152602081019050610940565b8381111561096a576000848401525b50505050565b6000601f19601f8301169050919050565b600061098c82610921565b610996818561092c565b93506109a681856020860161093d565b6109af81610970565b840191505092915050565b6109c3816108b6565b82525050565b60008115159050919050565b6109de816109c9565b82525050565b600060c08201905081810360008301526109fe8189610981565b90508181036020830152610a128188610981565b90508181036040830152610a268187610981565b9050610a3560608301866109ba565b610a4260808301856109d5565b81810360a0830152610a548184610981565b9050979650505050505050565b6000602082019050610a7660008301846109ba565b92915050565b600080fd5b600080fd5b7f4e487b7100000000000000000000000000000000000000000000000000000000600052604160045260246000fd5b610abe82610970565b810181811067ffffffffffffffff82111715610add57610adc610a86565b5b80604052505050565b6000610af0610882565b9050610afc8282610ab5565b919050565b600067ffffffffffffffff821115610b1c57610b1b610a86565b5b610b2582610970565b9050602081019050919050565b82818337600083830152505050565b6000610b54610b4f84610b01565b610ae6565b905082815260208101848484011115610b7057610b6f610a81565b5b610b7b848285610b32565b509392505050565b600082601f830112610b9857610b97610a7c565b5b8135610ba8848260208601610b41565b91505092915050565b600080600060608486031215610bca57610bc961088c565b5b600084013567ffffffffffffffff811115610be857610be7610891565b5b610bf486828701610b83565b935050602084013567ffffffffffffffff811115610c1557610c14610891565b5b610c2186828701610b83565b925050604084013567ffffffffffffffff811115610c4257610c41610891565b5b610c4e86828701610b83565b9150509250925092565b600060208284031215610c6e57610c6d61088c565b5b600082013567ffffffffffffffff811115610c8c57610c8b610891565b5b610c9884828501610b83565b91505092915050565b7f4e487b7100000000000000000000000000000000000000000000000000000000600052602260045260246000fd5b60006002820490506001821680610ce857607f821691505b602082108103610cfb57610cfa610ca1565b5b50919050565b7f4e487b7100000000000000000000000000000000000000000000000000000000600052601160045260246000fd5b6000610d3b8261084e565b91507fffffffffffffffffffffffffffffffffffffffffffffffffffffffffffffffff8203610d6d57610d6c610d01565b5b600182019050919050565b7f566f7465722063616e20766f7465206f6e6c79206f6e63652e00000000000000600082015250565b6000610dae60198361092c565b9150610db982610d78565b602082019050919050565b60006020820190508181036000830152610ddd81610da1565b905091905056fea2646970667358221220118e5ad3e7e6e1923b6be6f845934c9be34362a144616d4e7a5d7fd1bdf9ca1664736f6c634300080d0033",
  "immutableReferences": {},
  "source": "//SPDX-License-Identifier: MIT\n\npragma solidity >=0.4.22 <0.9.0;\n\ncontract Election{\n\n    struct Voter {\n\n        string voterName;\n        string voterID;\n        string phoneNumber;\n        address voterAddress;\n        bool voted;\n        string vote;\n\n    }\n  \n\n    address public admin;\n    uint public voterCount;\n    mapping(address => Voter) public voters;\n    \n    \n    constructor() {\n\n        admin = msg.sender;\n        voterCount = 0;\n        \n    }\n\n    //The modifier or a constraint tracker which defines the function that can be executed by the admin only.\n    modifier onlyAdmin {\n        require(msg.sender == admin);\n        _;\n    }\n\n    //The modifier which makes sure that only voter can access(Prateek's part)\n    modifier onlyVoter {\n        require(msg.sender != admin);\n        _;\n    }\n\n\n    function voterLogin(string memory _voterName, string memory _voterID, string memory _phoneNumber) public onlyVoter {\n         \n        \n        voters[msg.sender].voterName = _voterName;\n        voters[msg.sender].voterID = _voterID;\n        voters[msg.sender].phoneNumber = _phoneNumber;\n        voters[msg.sender].voterAddress = msg.sender;\n        voters[msg.sender].voted = false;\n        voterCount++;\n\n\n    }\n    \n\n    function vote(string memory _candidateName) public onlyVoter {\n     \n        require(!voters[msg.sender].voted, \"Voter can vote only once.\");\n        voters[msg.sender].voted = true;\n        voters[msg.sender].vote = _candidateName;\n        \n    }\n\n\n}",
  "sourcePath": "/home/prateek/Desktop/Projects/Final_Year_Project/eVoting/src/blockchain/contracts/Election.sol",
  "compiler": {
    "name": "solc",
    "version": "0.8.13+commit.abaa5c0e.Emscripten.clang"
  },
  "schemaVersion": "3.4.7",
  "updatedAt": "2022-07-11T17:46:42.452Z",
  "networkType": "ethereum",
  "devdoc": {
    "kind": "dev",
    "methods": {},
    "version": 1
  },
  "userdoc": {
    "kind": "user",
    "methods": {},
    "version": 1
  }
}